:020000040800F2
:1000000000000220B9020008BF020008C302000875
:1000100035030008390300088103000800000000D0
:10002000000000000000000000000000C9030008FC
:10003000CD03000800000000D10300082D160008C1
:10004000E5030008E5030008E5030008E5030008F0
:10005000E5030008E5030008E5030008E5030008E0
:10006000E5030008E5030008E5030008E5030008D0
:10007000E5030008E5030008E5030008E5030008C0
:10008000E5030008E5030008E5030008E5030008B0
:10009000E5030008E5030008E5030008E5030008A0
:1000A000E5030008E5030008E5030008E503000890
:1000B000E5030008E5030008E5030008E503000880
:1000C000E5030008E5030008E5030008E503000870
:1000D000E5030008E5030008E5030008E503000860
:1000E000E5030008E5030008E5030008E503000850
:1000F000E5030008E5030008E5030008E503000840
:10010000E5030008E5030008E5030008E50300082F
:10011000E5030008E5030008E5030008E50300081F
:10012000E5030008E5030008E5030008E50300080F
:10013000E5030008E5030008E5030008E5030008FF
:10014000E5030008E5030008E5030008E5030008EF
:10015000E5030008E5030008E5030008E5030008DF
:10016000E5030008E5030008E5030008E5030008CF
:10017000E5030008E5030008E503000800000000AF
:10018000E5030008E503000800B583B001F0DEF8E0
:10019000384B394A1360394A1360394900E0214627
:1001A000384B99420BD20A684B6801F10C048868FD
:1001B0009842F4D952F8041B43F8041BF8E72E4B7D
:1001C0001A68314B9A4200D0FEE72C4B1A682F4B2D
:1001D0009A42F9D1274B2E4A13602E4A13602E4AB9
:1001E00005E0002043F8040B9A42FAD80A462B4B4C
:1001F0009A4204D2114651F8083B5268F4E7244B66
:100200001B6813B9234B1B6803B1FEE701F052F9D9
:10021000694601A800F0AAFF214C224BE41AA41061
:10022000002504E01F4B53F8253098470135AC42B8
:10023000F8DC1D4C1D4BE41AA410002504E01B4BF8
:1002400053F8253098470135AC42F8DC0099019805
:1002500001F08AF90546164C164BE41AA41004E086
:10026000013C144B53F824309847002CF8DC284606
:1002700000F058FFBABADECA000000207C0000205F
:10028000E8030008000400087856341232547698C7
:100290008000002020010020000400081004000855
:1002A00010040008100400081004000810040008DE
:1002B000100400081004000808B5FFF765FF00BE31
:1002C000FEE71EF0040F0CBFEFF30880EFF3098088
:1002D0007146414A10472DE9F04182B004460D466F
:1002E000124B5F6BD3F838809E6A1B6B13F0020FC2
:1002F00003D00E4BDB6A002B0BDB0D4800F072FFC6
:10030000009543463A463146204600F095FF00BE30
:10031000FEE74BF6AB6101F009F80028EDD0034B86
:100320004FF00042DA6202B0BDE8F08100ED00E07B
:10033000F028000800BEFEE71EF0040F0CBFEFF32C
:100340000880EFF309807146244A10472DE9F041F7
:1003500082B004460D46084B5F6BD3F838809E6A26
:10036000064800F03FFF009543463A463146204696
:1003700000F062FF00BEFEE700ED00E0002900088B
:100380001EF0040F0CBFEFF30880EFF309807146F5
:10039000134A10472DE9F04182B004460D46084B40
:1003A0005F6BD3F838809E6A064800F01BFF00950B
:1003B00043463A463146204600F03EFF00BEFEE787
:1003C00000ED00E00C29000800BEFEE700BEFEE7DD
:1003D00000BEFEE770470000D70200084D0300088A
:0803E0009503000800BEFEE7D2
:1003E800D82900080000002080000020D829000833
:1003F80000000010000000108000002024010020F0
:080408000000001000000010CC
:1004400010B504460E4B18784FF47A73B3FBF0F3F3
:100450000C4A1068B0FBF3F000F0A8F868B90F2C54
:1004600001D901200AE0002221464FF0FF3000F0C0
:1004700057F8054B1C60002000E0012010BD00BFB4
:1004800004000020140000200800002008B50B4BD9
:100490001A6842F400721A601A6842F480621A60A4
:1004A0001A6842F480721A60032000F01BF80F20D3
:1004B000FFF7C6FF01F086F8002008BD003C0240AF
:1004C000034A1168034B1B780B441360704700BF4D
:1004D0001401002004000020014B1868704700BF81
:1004E0001401002010B50446C31E042B0FD80A4A7D
:1004F000D36823F4E0631B041B0C240204F4E064BF
:10050000234343F0BF6343F40033D36010BD922113
:10051000024800F0D7FFEAE700ED00E040270008BE
:1005200070B505460C4616460F2A25D80F2C28D83C
:100530001B4BDB68C3F30223C3F10701042928BF67
:1005400004211A1D062A21D9033B4FF0FF3202FA7B
:1005500001F124EA01049C4002FA03F326EA0306AF
:100560003443002D14DB2401E4B205F1604505F5A8
:10057000614585F8004370BDAA210A4800F0A2FF3A
:10058000D4E7AB21074800F09DFFD1E70023DCE76B
:1005900005F00F052401E4B2034B5C55EBE700BF07
:1005A00000ED00E04027000814ED00E00138B0F154
:1005B000807F0AD2064B5860064AF02182F8231049
:1005C0000020986007221A6070470120704700BF22
:1005D00010E000E000ED00E010B50446042800D073
:1005E00038B9042C0BD0094A136823F004031360B4
:1005F00010BD40F2C911064800F064FFF1E7034A5C
:10060000136843F004031360F2E700BF10E000E05A
:10061000402700082DE9F04383B007460E46B24B51
:10062000984223D003F5806398421FD003F580637E
:1006300098421BD003F58063984217D003F580637E
:10064000984213D003F5806398420FD003F580637E
:1006500098420BD003F58063984207D003F580637E
:10066000984203D0B321A14800F02CFF33689AB21E
:1006700012B11B0C1B041BB1B4219C4800F022FFDB
:100680007368012B1ED9112B1CD0022B1AD0122BF0
:1006900018D0974A934215D002F58012934211D098
:1006A00002F5801293420DD0A2F5F812934209D0C0
:1006B00002F58012934205D002F58012934201D0D8
:1006C000032B04D1B368022B06D800244BE0B521DC
:1006D000864800F0F7FEF5E7B621844800F0F2FE08
:1006E000F3E7C821814800F0EDFE52E0E0217F48A9
:1006F00000F0E8FE90E0072300E000238B40034376
:1007000002327C4941F822307B4B1A686FEA0803B9
:1007100022EA0801706810F4803F01D048EA020123
:10072000754A1160526803EA0201706810F4003FD4
:1007300001D048EA0201704A5160926803EA02015E
:10074000706810F4801F01D048EA02016A4A916083
:10075000D2681340716811F4001F01D048EA020307
:10076000654AD36001340F2C00F2BB800125A540FF
:10077000336803EA050835EA0303F3D173685A1EA8
:10078000012A03D9112B01D0122B15D1F368032BA9
:10079000A7D8BA68610003238B4022EA0302F368FA
:1007A0008B401343BB607A6822EA05027368C3F387
:1007B0000015A54015437D60FA6865000323AB4032
:1007C0006FEA030922EA0302B368AB401343FB60FC
:1007D0007368022B01D0122B2ED13369E3B1092BA0
:1007E0001AD0012B18D0022B16D0032B14D0042BB7
:1007F00012D0052B10D0062B0ED0072B0CD0082BB7
:100800000AD00A2B08D00B2B06D00C2B04D00D2BB2
:1008100002D00F2B7FF46AAFE208083257F82200AB
:1008200004F0070399000F238B4020EA030033698B
:100830008B40034347F822303B6809EA0309736899
:1008400003F00303AB4043EA09033B60736813F012
:10085000805F87D000230193284B5A6C42F480427A
:100860005A645B6C03F480430193019BA208911CC2
:10087000204B53F8210004F0030399000F238B4011
:1008800020EA0300184B9F423FF437AF03F5806323
:100890009F421AD003F580639F4218D003F580630E
:1008A0009F4216D003F580639F4214D003F5806306
:1008B0009F4212D003F580639F4210D003F58063FE
:1008C0009F423FF418AF082318E7012316E70223DD
:1008D00014E7032312E7042310E705230EE706239A
:1008E0000CE703B0BDE8F083000002407427000865
:1008F0000000111000380140003C01400038024067
:1009000070B5054614460E4621B1012C08D86CB1CD
:10091000AE6170BD40F29F11064800F0D3FDF4E7D0
:100920004FF4D071034800F0CDFDF0E73604AE611E
:10093000EFE700BF74270008002800F05C8270B564
:1009400082B0044603680F2B39D8236813F0010FD7
:100950004DD063682BB1B3F5803F02D0B3F5A02F23
:1009600032D1A54B9B6803F00C03042B36D0A24B6D
:100970009B6803F00C03082B2BD06368B3F5803F12
:100980005FD0B3F5A02F62D09B4B1A6822F480325F
:100990001A601A6822F480221A606368002B60D003
:1009A000FFF79AFD0546944B1B6813F4003F1ED1D8
:1009B000FFF792FD401B6428F5D9032022E2E821CD
:1009C0008E4800F07FFDC0E7ED218C4800F07AFDF5
:1009D000C7E7894B5B6813F4800FCED0864B1B684A
:1009E00013F4003F03D06368002B00F006822368F5
:1009F00013F0020F66D0E368012B41D823691F2B47
:100A000044D87D4B9B6813F00C0F4AD07A4B9B68FF
:100A100003F00C03082B3FD0E368002B76D0784B13
:100A200001221A60FFF758FD0546734B1B6813F04F
:100A3000020F62D1FFF750FD401B0228F5D90320B9
:100A4000E0E16D4A136843F480331360A5E76A4B15
:100A50001A6842F480221A601A6842F480321A60DE
:100A60009BE7FFF739FD0546634B1B6813F4003F16
:100A7000BDD0FFF731FD401B6428F5D90320C1E14B
:100A800040F21F115D4800F01DFDB7E74FF4907173
:100A90005A4800F017FDB4E7574B5B6813F4800F1A
:100AA000BAD1554B1B6813F0020F03D0E368012B3A
:100AB00040F0A581504A136823F0F803216943EA06
:100AC000C1031360236813F0080F49D06369012B39
:100AD0002ED8636993B34B4B01221A60FFF7FCFCDD
:100AE0000546454B5B6F13F0020F39D1FFF7F4FC5D
:100AF000401B0228F5D9032084E13F4A136823F004
:100B0000F803216943EAC1031360DBE73C4B002291
:100B10001A60FFF7E1FC0546374B1B6813F0020F24
:100B2000D0D0FFF7D9FC401B0228F5D9032069E19A
:100B30004FF4B071314800F0C5FCCAE7314B0022D8
:100B40001A60FFF7C9FC05462B4B5B6F13F0020FD1
:100B500006D0FFF7C1FC401B0228F5D9032051E164
:100B6000236813F0040F00F08880A368012B01D9DB
:100B7000052B12D1204B1B6C13F0805F13D1002387
:100B800001931D4B1A6C42F080521A641B6C03F0E7
:100B900080530193019B012506E04FF4C67117486D
:100BA00000F090FCE6E70025174B1B6813F4807FEC
:100BB0002CD0A368012B3DD0052B41D00E4B1A6FD2
:100BC00022F001021A671A6F22F004021A67A36862
:100BD000002B3FD0FFF780FC0646074B1B6F13F03E
:100BE000020F48D1FFF778FC801B41F2883398420E
:100BF000F3D9032006E100BF00380240A427000813
:100C000000004742800E474200700040844A13684B
:100C100043F480731360FFF75FFC0646804B1B684C
:100C200013F4807FC5D1FFF757FC801B0228F5D94C
:100C30000320E7E07B4A136F43F001031367C6E725
:100C4000784B1A6F42F004021A671A6F42F00102E1
:100C50001A67BCE7FFF740FC0646724B1B6F13F0A8
:100C6000020F08D0FFF738FC801B41F2883398420E
:100C7000F3D90320C6E0002D3BD1A369022B3ED857
:100C8000A369002B00F0BD80664A926802F00C0256
:100C9000082A00F09080022B79D1E36913B1B3F5F3
:100CA000800F32D1236A3F2B35D8636A323BB3F5CC
:100CB000BF7F36D8A36A022B05D0042B03D0062BA6
:100CC00001D0082B33D1E36A023B0D2B35D8564BAC
:100CD00000221A60FFF700FC0546524B1B6813F018
:100CE000007F30D0FFF7F8FB401B0228F5D9032026
:100CF00088E04C4A136C23F080531364BDE740F244
:100D0000CF114A4800F0DEFBBAE74FF4EC714748D8
:100D100000F0D8FBC6E740F2D911444800F0D2FBFE
:100D2000C3E74FF4ED71414800F0CCFBC2E740F25D
:100D3000DB113E4800F0C6FBC5E74FF4EE713B48BF
:100D400000F0C0FBC3E7E369226A1343626A43EA27
:100D50008213A26A5208013A43EA0243E26A43EA72
:100D60000263304A5360304B01221A60FFF7B4FB34
:100D700004462C4B1B6813F0007F06D1FFF7ACFB39
:100D8000001B0228F5D903203CE000203AE0264B66
:100D900000221A60FFF7A0FB0446224B1B6813F0E9
:100DA000007F06D0FFF798FB001B0228F5D903202F
:100DB00028E0002026E0012B26D01A4B5B6803F4C4
:100DC0008001E269914221D103F03F02216A8A4207
:100DD0001ED1616A47F6C0721A408A421AD103F4E2
:100DE0004032A16A8A4217D103F07063E26A9342EB
:100DF00014D1002006E001207047012002E001200C
:100E000000E0002002B070BD0120FBE70120F9E7FF
:100E10000120F7E70120F5E70120F3E70120F1E7E2
:100E2000007000400038024060004742A4270008DC
:100E3000F8B52F4B9B6803F00C03042B53D0082B01
:100E400053D12B4B5A6802F03F025B6813F4800FBA
:100E500028D0274B5B68C3F3881358010021C01AC0
:100E600061F100018E0146EA906687013C1A66EB4B
:100E70000105E90041EA5471E000C01841F10001A8
:100E80004B0243EAD053440220461946002300F0A7
:100E9000D3FB174B5B68C3F3014301335B00B0FB2B
:100EA000F3F023E0124B5B68C3F388135C01002569
:100EB000E41A65F10005AE0146EA9466A701381B05
:100EC00066EB0501CC0044EA5074C500E81844F113
:100ED00000018B0243EA9053840220461946002306
:100EE00000F0AAFBD5E7034800E00348F8BD00BFC7
:100EF0000038024000127A000024F400002800F0BC
:100F0000F78070B50D4604460368013B0E2B6BD885
:100F1000072D6FD87A4B1B6803F00F03AB4208D242
:100F2000EBB2774A1370136803F00F03AB4240F043
:100F3000E180236813F0020F29D013F0040F04D0CE
:100F4000704A936843F4E0539360236813F0080FEA
:100F500004D06C4A936843F460439360A3687BB108
:100F6000802B0DD0902B0BD0A02B09D0B02B07D00D
:100F7000C02B05D0D02B03D0E02B01D0F02B3FD1DC
:100F8000604A936823F0F003A1680B4393602368E1
:100F900013F0010F4ED06368032B37D86368012B21
:100FA0003AD09A1E012A3ED9564A126812F0020F10
:100FB00000F0A28053498A6822F0030213438B6039
:100FC000FFF78AFA06464F4B9B6803F00C036268F2
:100FD000B3EB820F2ED0FFF77FFA801B41F28833EC
:100FE0009842F0D9032076E040F25121464800F0C3
:100FF00069FA8DE740F25221434800F063FA89E72D
:1010000040F27521404800F05DFAB9E74FF41F71D6
:101010003D4800F057FAC1E73A4A126812F4003F1F
:10102000C8D1012057E0374A126812F0007FC1D1C1
:10103000012050E0324B1B6803F00F03AB4207D98D
:10104000EAB22F4B1A701B6803F00F03AB4255D165
:10105000236813F0040F14D0E3685BB1B3F5805F2D
:1010600008D0B3F5A05F05D0B3F5C05F02D0B3F5EB
:10107000E05F31D1234A936823F4E053E1680B43E6
:101080009360236813F0080F15D023695BB1B3F5A3
:10109000805F08D0B3F5A05F05D0B3F5C05F02D084
:1010A000B3F5E05F1ED1174A936823F460432169CA
:1010B00043EAC1039360FFF7BBFE124B9B68C3F387
:1010C0000313124AD35CD840114B1860114B1868B7
:1010D000FFF7B6F9002070BD40F2BA210A4800F0CF
:1010E000F1F9C7E740F2C121074800F0EBF9DAE770
:1010F000012070470120EEE70120ECE70120EAE73C
:10110000003C024000380240A42700081C290008C7
:101110001400002008000020014B1868704700BF31
:1011200014000020FEE7000008B503460C4A1268D0
:101130005AB10B4A1068033323F003030344094AEE
:10114000934206D8064A136008BD054A0649116055
:10115000EFE700F0EBFB0C2303604FF0FF30F3E709
:101160008400002000FC01202401002001230360F2
:10117000014B0B60704700BF0C0000202DE9F043CD
:1011800085B004460F46435633BB04252846214606
:10119000ABBE0446384605B0BDE8F08314F9010B38
:1011A00004AA1A4402F8100C0133AB42F6D304AA85
:1011B0001344002203F8102C4FF00408E94640467F
:1011C0004946ABBE8046761B002EE3D03546102E36
:1011D00028BF10250023E8E70E46F5E708B5FFF71E
:1011E000CDFF08BD0FB400B583B004AB53F8042B9A
:1011F00001938021074800F047FC002804DC03B07D
:101200005DF804EB04B0704701460248FFF7E6FFC3
:10121000F5E700BF8C00002010B5044600F090FBFD
:1012200001462046FFF7DAFF01210248FFF7D6FF0B
:1012300010BD00BF6C280008F8B504460D461746DF
:101240001E462748FFF7CEFF21682648FFF7CAFF52
:1012500061682548FFF7C6FFA1682448FFF7C2FF71
:10126000E1682348FFF7BEFF21692248FFF7BAFF74
:1012700061692148FFF7B6FFA1692048FFF7B2FF77
:10128000E1691F48FFF7AEFF1E48FFF7ABFF294695
:101290001D48FFF7A7FF1D4CE16A1D48FFF7A2FF9D
:1012A000216B1C48FFF79EFFE16B1B48FFF79AFF7D
:1012B00015F0800F0AD115F4004F0CD11748FFF735
:1012C00091FF06991648FFF78DFFF8BD394615487E
:1012D000FFF788FFEFE731461348FFF783FFEDE79D
:1012E000D4270008E4270008F42700080428000891
:1012F000142800082428000834280008442800087E
:1013000054280008642800087028000800ED00E058
:101310008028000890280008A0280008D02800088D
:10132000D8280008B0280008C028000883691A8857
:101330008A4201D0002070470268033A012A01D98D
:1013400000207047023383610120704708B500F028
:1013500009F8024A024B9A6008BD00BF000000086D
:1013600000ED00E0024B4FF000629A60704700BF52
:1013700000ED00E0224B9B6803F00C03042B14D01B
:10138000082B16D01BB11F4B1F4A1A6002E01D4BE1
:101390001D4A1A601A4B9B68C3F303131B4AD15CA6
:1013A000184A1368CB4013607047164B184A1A60EE
:1013B000F0E7134B5A685B6803F03F0312F4800FA9
:1013C00013D0134AB2FBF3F20D4B5B68C3F38813DF
:1013D00003FB02F30A4A5268C2F30142013252008F
:1013E000B3FBF2F3074A1360D4E7074AB2FBF3F208
:1013F000034B5B68C3F3881303FB02F3EAE700BF08
:1014000000380240140000200024F4001C290008C9
:1014100000127A0030B595B000240194224B1A6C6A
:1014200042F080521A641B6C03F080530193019BBD
:1014300002941E4B1A6842F480421A601B6803F43F
:1014400080430293029B012308934FF48033099356
:101450004FF480030F93082310934FF4A873119354
:1014600002251295072313930E9508A8FFF764FA37
:101470000F230393049505944FF4A05306934FF460
:1014800080530793052103A8FFF738FDFFF744FEBB
:10149000074BA3FB00308009FFF788F80420FFF713
:1014A0009BF815B030BD00BF00380240007000400E
:1014B000D34D621008B5FEF7E9FFFFF7ABFFFFF76A
:1014C00059FF08BD08B50A4601460248FFF78AFEE3
:1014D000FEE700BF2C29000808B501224FF4304177
:1014E0000148FFF70DFA08BD000C024008B50022C4
:1014F0004FF430410148FFF703FA08BD000C0240E9
:10150000F0B587B0114D2B6B43F008032B634FF4FC
:1015100030430193012702970224049403940C4E54
:1015200001A93046FFF776F82B6B43F008032B63D5
:101530004FF48043019302970494039401A9304629
:10154000FFF768F8FFF7D2FF07B0F0BD00380240A0
:10155000000C024008B501224FF480410148FFF71A
:10156000CFF908BD000C024010B51248FFF754FE39
:10157000114B19681148FFF735FE00F025F8FFF709
:10158000BFFF00240DE04FF47A7000F03BF8FFF746
:10159000ADFFFA2000F036F8013421460848FFF785
:1015A00021FEFFF7D7FFFFF797FF002CEBD040F2AB
:1015B000EE20EAE75C2900081400002070290008EA
:1015C00088290008704700000A4B1B680A4AA2FBE2
:1015D00003239B09013BB3F1807F09D2074A536083
:1015E000074BF02183F82310002393600723136037
:1015F000704700BF14000020D34D621010E000E0DF
:1016000000ED00E0034B1860024B1B68002BFBD180
:10161000704700BF1C010020034B1B681BB1024A2E
:101620001368013B136070471C01002008B5FEF7EA
:1016300047FFFFF7F1FF08BD53B94AB9002908BFBA
:1016400000281CBF4FF0FF314FF0FF3000F06CB9A5
:10165000ADF1080C6DE904CE00F006F8DDF804E009
:10166000DDE9022304B070472DE9F047089E0D46DE
:1016700004468E46002B40F082808A42174646D9A7
:10168000B2FA82F24AB1C2F1200105FA02F320FA5D
:1016900001F1974041EA030E94404FEA1748230CAA
:1016A000BEFBF8FCB9B208FB1CEE43EA0E430CFB90
:1016B00001F098420AD9FB180CF1FF3580F0168131
:1016C000984240F21381ACF1020C3B441B1AA4B2C5
:1016D000B3FBF8F008FB103344EA034400FB01F1CC
:1016E000A14209D93C1900F1FF3380F00181A142E8
:1016F00040F2FE8002383C44641A40EA0C4000216B
:101700001EB1D4400023C6E90043BDE8F08702B90A
:10171000FFDEB2FA82F2002A4FD1CB1B4FEA174EFE
:101720001FFA87F80121B3FBFEFC250C0EFB1C33CE
:1017300045EA034508FB0CF3AB4207D97D190CF1D0
:10174000FF3002D2AB4200F2E7808446ED1AA3B22A
:10175000B5FBFEF00EFB105543EA054408FB00F80C
:10176000A04507D93C1900F1FF3302D2A04500F291
:10177000D7801846A4EB080440EA0C40C0E78B422F
:1017800008D9002E00F0AF800021C6E90005084608
:10179000BDE8F087B3FA83F100294BD1AB4202D305
:1017A000824200F2B780841A65EB030301209E4653
:1017B000002EAAD0C6E9004EA7E7C2F1200C01FA1C
:1017C00002F3974020FA0CF04FEA174E21FA0CFC76
:1017D0001843BCFBFEF1050C0EFB11CC1FFA87F879
:1017E00045EA0C4501FB08F3AB4204FA02F409D9BF
:1017F0007D1901F1FF3C80F08B80AB4240F2888084
:1018000002393D44EB1A85B2B3FBFEF00EFB1033F8
:1018100045EA034500FB08F3AB4207D97D1900F107
:10182000FF3C71D2AB426FD902383D44EB1A40EA1B
:10183000014178E7C1F1200C8B4022FA0CF71F43DD
:1018400020FA0CF405FA01F34FEA174E25FA0CF5CD
:101850001C43230CB5FBFEF91FFA87F80EFB195544
:1018600043EA054509FB08FAAA4502FA01F200FA23
:1018700001F308D97D1909F1FF3047D2AA4545D9AE
:10188000A9F102093D44A5EB0A05A4B2B5FBFEF09F
:101890000EFB105544EA054400FB08F8A04507D9A3
:1018A0003C1900F1FF352DD2A0452BD902383C441C
:1018B00040EA0940A4EB0804A0FB02894C45C64657
:1018C0004D4619D316D05EB1B3EB0E0264EB05049E
:1018D00004FA0CFCCA404CEA0202CC40C6E90024DF
:1018E0000021BDE8F087314630460EE7AC46EDE614
:1018F000184601E74345E6D2B8EB020E69EB07054F
:101900000138E0E72846D3E760468FE78146BAE72B
:10191000614677E708464BE7ACF1020C3D4415E71A
:1019200002383C4426E700BF704700BF014B1868EF
:10193000704700BF180000200000000000000000F9
:1019400090F800F06DE9024520F007016FF0000CFF
:1019500010F0070491F820F040F049804FF00004A7
:101960006FF00700D1E9002391F840F000F1080082
:1019700082FA4CF2A4FA8CF283FA4CF3A2FA8CF3BA
:101980004BBBD1E9022382FA4CF200F10800A4FA21
:101990008CF283FA4CF3A2FA8CF3E3B9D1E9042375
:1019A00082FA4CF200F10800A4FA8CF283FA4CF3AC
:1019B000A2FA8CF37BB9D1E9062301F1200182FA66
:1019C0004CF200F10800A4FA8CF283FA4CF3A2FA6C
:1019D0008CF3002BC6D0002A04BF04301A4612BA7A
:1019E000B2FA82F2FDE8024500EBD2007047D1E97D
:1019F000002304F00305C4F100004FEAC50514F00C
:101A0000040F91F840F00CFA05F562EA05021CBFDC
:101A100063EA050362464FF00004A9E770B5141E9F
:101A20009AB005462BDB1A464FF4027300910491DD
:101A3000ADF80C3013D0013C4FF6FF761E9B02949C
:101A400069460594ADF80E6000F008F9421C01DA11
:101A50008B232B60009B00221A701AB070BD1E9B56
:101A600002944FF6FF7669460594ADF80E6000F0DB
:101A7000F5F8431C01DA8B232B601AB070BD8B2361
:101A800003604FF0FF30F8E710B5054C82B00093CB
:101A900013460A4601462068FFF7C0FF02B010BD9A
:101AA000180000202DE9F0478E681D46AE420C4616
:101AB0000B68174636D88046888910F4906F0ED18F
:101AC000354618462A46394600F0D4FCA2682368F9
:101AD000961B2B44A66023600020BDE8F087D1E967
:101AE000041606EB4606A3EB010906EBD6766B1C43
:101AF00076104B44B342324684BF1E4632464305FD
:101B000012D51146404600F073FD824600B34A46A6
:101B1000216900F015FCA38923F4906343F080034E
:101B2000A38106E02E46CCE7404600F0C5FD824684
:101B300050B1A6EB09020AEB09036661C4F810A0D4
:101B40002360A2602E46BCE72169404600F0FAFC03
:101B50000C23C8F80030A38943F04003A3814FF061
:101B6000FF30BAE72DE9F04F936883B09046002B21
:101B70006DD017688D6882460C460868083743E0C8
:101B8000A38913F4906F2ED0D4E9041505EB450515
:101B9000A0EB010B05EBD5750BEB06006D100130CA
:101BA000A8422A4684BF05462A465B0536D511461B
:101BB000504600F01DFD00283AD05A462169019098
:101BC00000F0BEFBA289019B22F4906242F08002E9
:101BD000A281A5EB0B0203EB0B0065612361206082
:101BE000A2603546B3465A46494600F043FCD8F851
:101BF0000830A2682068551B58449E1BA5602060D1
:101C0000C8F808601EB3083757E90296AB46002EA5
:101C1000F9D0AE42B4D23546B346E4E7504600F0C0
:101C20004BFD03460028D4D12169504600F08AFCC0
:101C30000C23CAF80030A389002243F040034FF080
:101C4000FF30A381C8E9012203B0BDE8F08F002076
:101C5000C8F8040003B0BDE8F08F00BF2DE9F04FD5
:101C600090468A899FB014068B46029003D50A6974
:101C7000002A00F00B81059330238DF8323098F85C
:101C800000308E4E002120220B918DF8312001274B
:101C9000002B00F08480252B00F0F680454603E001
:101CA000252B00F0868025466B786C1C002BF7D125
:101CB000B4EB080A73D04246534659460298FFF7E0
:101CC000F1FE01306BD00B9B6A7853440B93002AD2
:101CD00065D000234FF0FF3201340693CDE908337D
:101CE0008DF85B301C93079205E0069A07FA03F320
:101CF00013432C4606932546052215F8011B304652
:101D000000F0CEFAAA46831B0028EED1069BD90626
:101D100044BF20228DF85B2021781A0744BF2B2274
:101D20008DF85B202A2948D1059A116804320029D0
:101D300005927EDB09916178A51C2E2956D0604C56
:101D40000322204600F0ACFA002868D0001B069B56
:101D5000402404FA00F00343069305F101082978B2
:101D600058488DF83010062200F09AFA002866D004
:101D7000554B002B56D005AB00935A46534B029857
:101D800006A9AFF300808146B9F1FF3F07D00B9B56
:101D90004B440B9398F80030002B7FF47CAFBBF8DA
:101DA0000C305B0654BF0B984FF0FF301FB0BDE8FE
:101DB000F08FB4EB080A8CD07DE7A1F13002092A3C
:101DC00088BFA246B9D8099B01E02C460135297885
:101DD00003EB830302EB4303A1F13002092AAA4675
:101DE000F3D92E2904F102050993A8D19AF801101C
:101DF0002A292ED1059B9AF802101A6807920433FB
:101E0000002A05930AF103050AF1020337DB2C4C83
:101E1000032220469A4600F043FA002896D1A846AD
:101E200055469CE7059B073323F0070308330593CA
:101E3000ADE7494243F00203099106937BE705AB06
:101E400000935A46214B029806A900F0D7F8814624
:101E50009AE7A1F130020023092A079301D923E070
:101E60005546697803EB830302EB4303A1F130028B
:101E7000092A05F1010AF3D9023507935FE74FF00C
:101E8000FF329A4607925AE7444622E740210393DD
:101E900000F0AEFB039BCBF80000CBF8100030B194
:101EA0004022CBF81420E6E6AA46013547E7029A1D
:101EB0000C2313604FF0FF3078E700BF942900082F
:101EC0009C290008A029000800000000A51A0008AD
:101ED0002DE9F0470C4691460A698968DDF82080B3
:101EE0008A42B8BF0A46C9F8002094F84310064653
:101EF0001F4611B10132C9F80020236899065CD54C
:101F0000D9F800200232C9F80020236813F0060F28
:101F100019461DD1E1688A1A002AD8BF194617DD73
:101F200004F1190A002505E0E368D9F800209B1A9E
:101F3000AB420CDD0123524639463046C0470130E2
:101F400005F10105F0D14FF0FF30BDE8F0872168C1
:101F500094F84330003318BF01238A060AD5E118EC
:101F60005A1C302081F84300224494F8451082F82E
:101F70004310023304F1430239463046C047013072
:101F8000E1D02368A268216903F00603042B1DD069
:101F90008A4226DD4FF00009521A91441A34002576
:101FA00001E04D451DDA0123224639463046C0473F
:101FB000013005F10105F4D1C5E713F0060F13D088
:101FC00094F84330003318BF0123D3E7D9F8000059
:101FD000E3688A42A3EB000323EAE379DCDC002B0D
:101FE000DCDC0020BDE8F087E168D9F800208A1A1F
:101FF000002AD8BF194693DCAAE700BF2DE9F043B9
:102000000C46097E85B06E29064617460C98984600
:1020100004F1430E6DD039D9732900F0F68044D90C
:10202000752900F00481782940F011817823226815
:10203000DFF858C284F845300168150651F8043BB2
:10204000016040F1A180D10744BF42F0200222602C
:10205000002B00F093801022002184F84310606868
:10206000A0600028C0F2C880216821F0040121602E
:10207000002B40F0A380002840F0C0807546082A5D
:1020800000F0AC80AEEB0503236141E0632900F072
:10209000E5801AD8002938D0582940F0D88084F833
:1020A00045102268DFF8E8C1C6E76F2900F0BF805D
:1020B000702940F0CC802268DFF8D0C142F02002C5
:1020C0007823226084F84530B6E7642902D0692974
:1020D00040F0BD8022680368110603F1040557D55E
:1020E000196805600B46002959DBDFF8A4C10A22F4
:1020F000B5E70368226861691D1D056015061B6848
:1021000002D4500600F1BD8019600023754623619A
:10211000CDF800803B4603AA21463046FFF7D8FEA3
:10212000013020D02A46236939463046C047013065
:1021300019D022680398E368920719D51A1A002A61
:1021400016DD04F11909002504E0E36803981A1A62
:10215000AA420DDD01234A4639463046C0470130C8
:1021600005F10105F1D14FF0FF3005B0BDE8F08376
:102170009842B8BF184605B0BDE8F083226822F047
:1021800020022260102267E7500648BF9BB25AE740
:102190005106A5D5B3F9003005601946A3E761687B
:1021A000A1602D200029C3F1000384F8430002DB65
:1021B00022F004022260DFF8D8C00A22754600E04F
:1021C0000B46B3FBF2F102FB113093421CF8000006
:1021D00005F8010DF4D2082A7FF454AF2368DB0719
:1021E0007FF550AF626823699A423FF74BAF3023C7
:1021F00005F8013C013D45E7002BDFD19CF800309C
:1022000084F8423004F1420539E703686268191D19
:1022100001601D680021284600F042F8002832D0F5
:10222000401B60602061002384F8433070E722681F
:10223000036812F0800F03F104051AD01B680560D3
:102240006F290CBF08220A22DFF844C004E70123EB
:1022500084F84210236104F14205E4E703681A6838
:10226000191D0123016004F1420584F84220236115
:10227000D9E712F0400F0DBF1B6805601B88056091
:10228000DEE7198041E76068CCE700BFBC290008A1
:10229000A829000800000000000000000000000065
:1022A00001F0FF01102A2BDB10F0070F08D010F807
:1022B000013B013A8B422DD010F0070F42B3F6D10B
:1022C000F0B441EA012141EA014122F007047FF024
:1022D00000070023F0E80256083C85EA010586EA7B
:1022E000010685FA47F5A3FA87F586FA47F6A5FAB7
:1022F00087F68EB9EED1F0BC01F0FF0102F00702C3
:1023000032B110F8013B013A83EA010313B1F8D16D
:102310000020704701387047002D06BF354603384E
:10232000073815F0010F07D1013015F4807F02BF87
:10233000013015F4C03F0130F0BC0138704700BFD8
:10234000844641EA000313F003036DD1403A41D3C0
:1023500051F8043B40F8043B51F8043B40F8043B7F
:1023600051F8043B40F8043B51F8043B40F8043B6F
:1023700051F8043B40F8043B51F8043B40F8043B5F
:1023800051F8043B40F8043B51F8043B40F8043B4F
:1023900051F8043B40F8043B51F8043B40F8043B3F
:1023A00051F8043B40F8043B51F8043B40F8043B2F
:1023B00051F8043B40F8043B51F8043B40F8043B1F
:1023C00051F8043B40F8043B51F8043B40F8043B0F
:1023D000403ABDD2303211D351F8043B40F8043BAF
:1023E00051F8043B40F8043B51F8043B40F8043BEF
:1023F00051F8043B40F8043B103AEDD20C3205D3BF
:1024000051F8043B40F8043B043AF9D2043208D0B6
:10241000D2071CBF11F8013B00F8013B01D30B8828
:1024200003806046704700BF082A13D38B078DD006
:1024300010F003038AD0C3F10403D21ADB071CBFD8
:1024400011F8013B00F8013B80D331F8023B20F842
:10245000023B7BE7043AD9D3013A11F8013B00F87B
:10246000013BF9D20B7803704B7843708B78837003
:10247000604670478842F0B40DD98B1883420AD960
:10248000841832B1224613F8014D02F8014D9942E9
:10249000F9D1F0BC70470F2A0ED80346541E002A0B
:1024A000F7D001340C44013B11F8012B03F8012F44
:1024B000A142F9D1F0BC704740EA01039B073BD130
:1024C000A2F110073F0901F1200606EB071601F102
:1024D000100300F1100453F8105C44F8105C53F83A
:1024E0000C5C44F80C5C53F8085C44F8085C53F846
:1024F000045C44F8045C1033B34204F11004EAD1E4
:102500007B1C1B0112F00C0F194402F00F05034451
:1025100015D0043DAD0803EB850C1C1F0E4656F884
:10252000047B44F8047F6445F9D10135AD002B44A8
:10253000294402F00302B1E7541E0346B1E72A46DC
:10254000ACE700BF00293CD038B551F8043C0C1F63
:10255000002BB8BFE418054600F0E6F8234B1A68D4
:102560002AB1A2420DD921686018824223D062604C
:1025700028461C60BDE8384000F0D8B8A34203D814
:102580001A465368002BF9D111685018A04219D08F
:1025900024D821686018834206D0636054602846BE
:1025A000BDE8384000F0C2B8D3E9000301446360DD
:1025B00021605460F3E7D2E90002014462602160C7
:1025C000D6E7704720680144501883421160E6D175
:1025D000D3E90003014453601160E0E70C232B6052
:1025E0002846BDE8384000F0A1B800BF0C0100202B
:1025F000F8B5CD1C25F0030508350C2D38BF0C258A
:10260000002D064633DBA94231D82A4F00F08CF862
:102610003A6852B113685B1B04D43FE023685B1B2C
:1026200029D522465468002CF8D1796800293BD07E
:102630002946304600F066F8431C28D0C41C24F01C
:102640000304A04205D0211A304600F05BF80130A7
:102650001DD02560304600F069F804F10B0020F031
:102660000700231DC21A01D01B1AA350F8BD0C226B
:1026700032600020F8BD0B2B05D8A242636811D050
:102680005360E7E7144623601C442560E2E70C230F
:102690003046336000F04AF80020F8BD0B2BF1D82B
:1026A000536814463B60D5E7304600F02BF878605D
:1026B000BEE700BF0C01002009B3F8B51446CAB14B
:1026C00006460D4600F034F8A04202D32F463846A5
:1026D000F8BD21463046FFF78BFF07460028F6D0AD
:1026E00022462946FFF72CFE30462946FFF72AFFEF
:1026F0003846F8BD2746FFF725FF3846F8BD114696
:10270000FFF776BF38B5074C00230546084623601F
:10271000FEF70AFD431C00D038BD2368002BFBD018
:102720002B6038BD18010020704700BF704700BF04
:1027300051F8043C181F002BBCBF0B58C018704741
:102740002E2E2F73797374656D2F7372632F7374CC
:102750006D333266342D68616C2F73746D3332665D
:102760003478785F68616C5F636F727465782E632C
:10277000000000002E2E2F73797374656D2F737215
:10278000632F73746D333266342D68616C2F7374EC
:102790006D3332663478785F68616C5F6770696F3B
:1027A0002E6300002E2E2F73797374656D2F737254
:1027B000632F73746D333266342D68616C2F7374BC
:1027C0006D3332663478785F68616C5F7263632E54
:1027D00063000000537461636B206672616D653A3B
:1027E0000A000000205230203D2020253038580AB1
:1027F00000000000205231203D2020253038580AAA
:1028000000000000205232203D2020253038580A98
:1028100000000000205233203D2020253038580A87
:102820000000000020523132203D20253038580A67
:1028300000000000204C52203D2020253038580A4E
:1028400000000000205043203D2020253038580A49
:102850000000000020505352203D20253038580AF7
:10286000000000004653522F4641523A0A00000031
:102870002043465352203D2020253038580A00007E
:102880002048465352203D2020253038580A000069
:102890002044465352203D2020253038580A00005D
:1028A0002041465352203D2020253038580A000050
:1028B000204D4D464152203D20253038580A000019
:1028C0002042464152203D2020253038580A000041
:1028D0004D6973630A000000204C522F4558435F36
:1028E00052455455524E3D20253038580A000000BC
:1028F0005B486172644661756C745D0A000000009B
:102900005B4275734661756C745D0A005B5573615B
:1029100067654661756C745D0A0000000000000088
:1029200000000000010203040607080957726F6ED9
:102930006720706172616D65746572732076616C79
:1029400075653A2066696C65202573206F6E206C72
:10295000696E652025640D0A0000000048656C6CF6
:102960006F2041726D20576F726C6421000000006F
:1029700053797374656D20636C6F636B3A202575B2
:1029800020487A0A000000005365636F6E642025BA
:10299000750A0000232D302B20000000686C4C00CD
:1029A0006566674546470000303132333435363787
:1029B000383941424344454600000000303132334B
:0D29C000343536373839616263646566006E
:0829D00098ECFF7F01000000FC
:1029D8007856341201FFFFFF100000008800002025
:1029E800000000000024F4001C000020000000008B
:1029F80000000000000000000000000000000000CF
:102A080000000000000000000000000000000000BE
:102A180000000000000000000000000000000000AE
:102A2800000000000000000000000000000000009E
:102A3800000000000000000000000000000000008E
:102A480000000000000000000000000032547698EA
:040000050800018965
:00000001FF
